S012000048656C6C6F576F726C642E7372656316
S11300000C9434000C9452000C9446000C9446005A
S11300100C9446000C9446000C9446000C94460044
S11300200C9446000C9446000C9446000C94460034
S11300300C9446000C9446000C9446000C94460024
S11300400C9446000C9446000C9446000C94460014
S11300500C9446000C9446000C9446000C94460004
S11300600C9446000C94460011241FBECFEFD8E038
S1130070DEBFCDBF21E0A0E0B1E001C01D92A230FF
S1130080B207E1F70E9466000C94C4000C940000CF
S113009052985A9AE9E6F0E0808181608083E89A78
S11300A0789408951F920F920FB60F9211248F9394
S11300B09F9383E090E090930101809300019F91CE
S11300C08F910F900FBE0F901F901895209A219A30
S11300D0229A0E94480052E044E033E021E08091FB
S11300E0000190910101892B59F425B96FEF83E246
S11300F094EF615080409040E1F700C0000032C0AE
S11301008091000190910101019759F435B96FEF85
S113011083ED90E3615080409040E1F700C000001F
S113012021C08091000190910101029759F445B9D1
S11301306FEF83E294EF615080409040E1F700C09C
S1130140000010C08091000190910101039751F4C7
S113015055B96FEF83ED90E3615080409040E1F733
S113016000C000008091000190910101019683700C
S11301709078992324F401978C6F9F6F0196909344
S10F0180010180930001ABCFF894FFCF85
S9030000FC
